:101000000000000000000000B07900009004000023
:1010100000000000000000000000000000000000D0
:1010200000000000000000000000000000000000C0
:041030003510000077
:1010340038B5012005F0C8FB0121012005F0F2FBC1
:1010440001F012FB01F010F9012001F004F900F0A5
:10105400DDFA1E4B1B78002B05D01D4801F0BEFBAA
:101064001C4A1D4B1A8005F053F8041C02F002F9C7
:1010740001F0D4FD05F0BCF901F02CFA00F08FFD6D
:1010840005F046F8051CAC420AD0144B1B78002B23
:1010940006D1002801D1032000E0022001F0B2FBB8
:1010A40005F0ECF80E4B0F4C1A682188914206D0DB
:1010B4001B68238001F05AFF208802F043F800F0F7
:1010C4002DF8012000F040FD2C1CD1E76D050040F7
:1010D400983A0000701700001A0000406F050040A5
:1010E400244002E07018004004E04EE20F502DE965
:1010F40020309FE5080093E50008A0E12008A0E166
:10110400010010E3CF17000B0020A0E30030E0E360
:10111400CF2F03E50F90FDE8000001E07047704712
:101124007047000008B5034801F0B8F908BC01BCD9
:101134000047C0462418004008B505480549002268
:1011440001F0E4F9044B186008BC01BC0047C04638
:1011540010270000E12700002418004008B5FFF71D
:10116400E1FF074B1B78012B07D1FA20400005490A
:10117400002201F0CBF9044B186008BC01BC004705
:10118400B8170040391300002018004000B5164B72
:101194001B6983B00B2B1AD8144A9B009B589F469B
:1011A400134A14E0134A12E0134A10E0134A0EE003
:1011B400134A0CE0134A0AE0134A08E0134A06E013
:1011C400134A04E0134A02E0134A00E0134A064BB0
:1011D400134859690918009112481349DB6800F053
:1011E40020FF03B001BC0047BC170040687000003A
:1011F400E8700000ED700000F2700000F77000006D
:10120400FC70000000710000057100000A7100000C
:101214000F71000014710000197100001E710000AC
:101224006C070000E41700402371000030B5104C37
:1012340085B04423039063706023A370002323705C
:1012440080235B42E37008230A4D00930A4B281C59
:1012540005221B68094902F055FAFFF797FF291C7C
:10126400201C02F087FB05B030BC01BC0047C0461F
:10127400E01700400018004004000040E41700405C
:1012840008B5094B9A680C2A01D90C3A02E0002AE5
:1012940000D10C22044B054805495B6800F0C1FEEF
:1012A40008BC01BC0047C046BC170040E41700401E
:1012B4002E71000030B50E4C85B0002203900D4D08
:1012C400627022706622E27060211822031CA170F1
:1012D400281C00920849062202F014FAFFF7D0FFF6
:1012E400291C201C02F046FB05B030BC01BC0047A1
:1012F400E017004000180040E417004010B50A4809
:1013040001F024F900F0D5FF084B094C00221A70B3
:101314002068FFF7CFFF2068FFF788FFFFF70CFF77
:1013240010BC01BC0047C046BC170040B8170040C1
:101334000000004008B5064B01221A70054B1B78CB
:10134400012B01D1FFF7DAFF08BC01BC0047C046FE
:1013540090040040B817004008B505F0FDFD1421C5
:1013640005F078FE13292AD8184B8900CB58184861
:101374009F46184925E0184923E0184921E01849F7
:101384001FE018491DE018491BE0184919E01849E5
:1013940017E0184915E0184913E0184911E01849F5
:1013A4000FE018490DE018490BE0184909E0184905
:1013B40007E0184905E0184903E0184901E004482A
:1013C400174900F02EFE08BC01BC004798700000CD
:1013D400E4170040367100004471000057710000AA
:1013E400677100007A7100008D7100009E71000029
:1013F400AA710000B7710000CA710000CE7100002C
:10140400E4710000F47100000C7200001F7200000F
:101414004B7200005A7200006C72000039720000B6
:101424008072000030B5124C1E2363706023A370D9
:10143400002323703C2383B0E3700A230D4D0093F3
:101444000D4B281C1B680D49042202F05BF90F2286
:101454000220002100F0EEFFFFF77EFF291C201C74
:1014640002F088FAFFF768FE03B030BC01BC004705
:10147400E01700400018004088720000E4170040A4
:10148400F0B50C06240E0E1C85B05822231C051C36
:101494001821082000F02AFFB3009B192C4A1B01D5
:1014A4009A180192002704E02A4B186800F007FFFD
:1014B4000137019B9F42F7DB2B061B0E0293231C73
:1014C4003C331B061B0E0820211C029A019300F0DA
:1014D4000DFF2B015B1B9B00E13BFF3B03930027AC
:1014E40004E01C4B186800F0EAFE0137039A9742A7
:1014F400F7DB02983C300006211C019B000E5822A9
:1015040000F0F4FE1C235D1B2B015D1BAD000024C9
:1015140004E0104B186800F0D2FE0134AC42F8DB52
:10152400682308200199582200F0E0FE2C239E1B1A
:10153400B3009E193601002404E0064B186800F03D
:10154400BEFE0134B442F8DB05B0F0BC01BC004778
:1015540080F8FFFF8C72000000B50A4B8BB00122AB
:101564001A7001A800F0F2FF019805F0EBFC00F0FE
:10157400A0FE01201221222200F05CFF0BB001BC6E
:101584000047C046B817004070B51D4B1A78002AB2
:1015940030D11C4800F082FF1B4B1B78002B02D17A
:1015A400FFF7DAFF28E0012B26D100F082FE0024A9
:1015B40005F0D2FC142105F04DFD0D1C05F0CCFC0A
:1015C400142105F047FD0E1C08351836281C311C63
:1015D4002D063606FFF754FF0120290E320E00F0C7
:1015E40029FF0134142001F023F8142CE0D1FFF773
:1015F40019FF01E000221A7070BC01BC0047C0460C
:101604009004004020180040B817004008B5064870
:1016140000F09CFFFFF772FE0220044900F0AAFFCD
:1016240008BC01BC0047C046BC17004001130000C1
:10163400000051E34300000A01C020E000106142B1
:10164400012051E22700000A0030B0E1003060427E
:10165400010053E12600009A020011E12800000A6B
:101664000E0211E38111A0010820A0030120A013A0
:10167400010251E3030051310112A0310222A031D1
:10168400FAFFFF3A020151E3030051318110A03106
:101694008220A031FAFFFF3A0000A0E3010053E1E9
:1016A4000130432002008021A10053E1A1304320F6
:1016B400A2008021210153E1213143202201802114
:1016C400A10153E1A1314320A2018021000053E391
:1016D4002222B0112112A011EFFFFF1A00005CE3D7
:1016E400000060421EFF2FE100003CE10000604268
:1016F4001EFF2FE10000A033CC0FA00101008003E6
:101704001EFF2FE1010851E32118A0211020A0237E
:101714000020A033010C51E32114A02108208222CF
:10172400100051E32112A02104208222040051E37D
:1017340003208282A120829000005CE33302A0E1B6
:10174400000060421EFF2FE11FFF2FE10000A0E117
:10175400000050E30201E0C30201A0B3361600EA20
:10176400000051E3F7FFFF0A03402DE9B1FFFFEB4F
:101774000640BDE8920003E0031041E01EFF2FE1A4
:101784007047C04600B50A2802D1054B0D221A60E5
:10179400034B1860034B1B689A06FBD501BC00473A
:1017A40000C000E014C000E010B5041C02E00134E5
:1017B400FFF7E8FF002C02D020780028F7D110BCF6
:1017C40001BC004700B50A4B19680A4A0878106042
:1017D400094A107801380006000E1070074A101CE0
:1017E400013108301960814200D31A6001BC0047FE
:1017F40014000040000001E0DD040040D404004077
:1018040030B5194B1A68802422431A60174A1A21EA
:101814001160002004321060C121243211600322BF
:101824001A600121043B1960114B1D682C431C6094
:10183400104C38252560043420600F48F2240460DD
:101844001B201860043B19600C4B0D4918680140BB
:1018540019600C491868014319600B4B19689143CE
:10186400196030BC01BC00470CC000E000C000E0BF
:101874000C0001E0000001E0280001E000C002E0EB
:10188400F0FFF0FF05000500088002E008B5FFF74F
:10189400B7FF124B196806220A431A60104A002344
:1018A400136011680F4A11600F4A136011680F4AE0
:1018B40011600F4A13600F4A13600F4A0F4B1A60EE
:1018C40001332722FF331A600D4B80221A600D4822
:1018D400FFF76AFF08BC01BC0047C046080001E0EE
:1018E40030180040381800403418004028180040D0
:1018F4002C1800403C180040EC10000028F1FFFFB9
:1019040010F0FFFF9072000000B5002803D0044BD4
:1019140007221A6001E0024B186001BC0047C04670
:10192400040001E010B50007400F022813D002287C
:1019340002D8012848D143E0032802D0062843D125
:1019440009E0234B1A68234B196801311960120608
:10195400214B120E1A60214B1B681DE0204A2149BD
:10196400126809783F290FD81206120E1A701E4AFF
:10197400111C013340318B4200D3131C194A1178D6
:1019840001310906090E1170184A164914680878BD
:10199400844201D2097811600D4A1268D107DDD45E
:1019A4000E4A136010E0124B1B78002B02D0FFF795
:1019B40009FF05E00F4B1A6802218A431A6003E00D
:1019C400034B1B689A06EED410BC01BC0047C0460A
:1019D400140001E02C1800403C18004008000040AE
:1019E400000001E0DC040040940400403018004092
:1019F400DD040040040001E038B5074C23684025AD
:101A04002B43FA202360400000F09EF82368AB4388
:101A1400236038BC01BC00470C0001E010B5041C75
:101A240000F0A2F8164B1B78072B10D8154B164A5A
:101A34001968101C0C70083001311960814200D300
:101A44001A600F4B1A7801321206120E1A700F4BDD
:101A54001B689A0601D5FFF7B5FE0D4B084A1868B6
:101A64001178884201D212781A6000F086F8094B86
:101A7400196802220A431A6010BC01BC0047C04620
:101A8400DD0400400C000040D4040040140001E0D8
:101A940034180040040001E010B5041C00F064F8A0
:101AA400144B1B78002B01D1002412E0124B19684F
:101AB4000A782270114A101C0131403019608142A9
:101AC40000D31A600B4B1A78013A1206120E1A70E0
:101AD400012400F052F8074B1B78002B06D1084B69
:101AE4001B68002B02D1012000F02EF8201C10BC32
:101AF40002BC0847DC04004010000040940400408D
:101B0400F809004008B520239B6900F003F808BCDD
:101B140001BC0047184708B520231B6E00F003F8EA
:101B240008BC01BC0047184710B5054B1C682023AE
:101B34005B6E00F007F8001910BC02BC0847C046F1
:101B4400E00400401847C04638B5041C002800D102
:101B54000124FFF7E9FF051CFFF7E6FF401BA04245
:101B6400FAD938BC01BC004708B520231B6900F032
:101B740003F808BC01BC0047184708B520235B697B
:101B840000F003F808BC01BC0047184708B520233F
:101B9400DB6900F003F808BC01BC0047184708B52E
:101BA4002023DB6E00F003F808BC01BC0047184793
:101BB40008B520231B6F00F000F8184708B5064B42
:101BC400064A19680A401A608022196812040A43F6
:101BD4001A60FFF7EDFFC046444002E0000030FF0A
:101BE400031C303B092200209A4240417047F8B55B
:101BF400041C002506E0AB005D1901366D00303F82
:101C040026607D1926683778381CFFF7E9FF00281D
:101C1400F1D1281CF8BC02BC08470000F0B59BB009
:101C2400219E041C0D1C02920193700602D4694982
:101C3400059101E0684A0592F30601D501239E430C
:101C440002980A2805D0022803D0102801D00024C5
:101C5400BAE0F10702D42022069201E03023069371
:101C6400B00717D5002D06DA01992D2201396D42EE
:101C74000191039210E0730704D501980138019093
:101C84002B2108E0320705D5019B2020013B01935D
:101C9400039001E0002103912023321C1A40079293
:101CA40005D0029B102B02D1019802380190002D1F
:101CB40004D1302209AB1A7001273AE000270299B7
:101CC4000A2915D010291ED0022903D0002204921B
:101CD400002526E0414B2B40002B04DA0222013B75
:101CE4005242134301330493EB0F5D196D1018E056
:101CF400281C0A2105F0AEF9281C04910A2105F0DC
:101D040095F9051C0DE0364B2B40002B04DA10220C
:101D1400013B5242134301330493EB171B0F5D192C
:101D24002D11059B04981A5C09ABDA550137002D77
:101D3400C5D120993B1C8F4200DA0B1C019811215C
:101D4400C21A0E4203D006E0202121700134013A68
:101D5400511C0029F8DC0399002901D021700134B9
:101D6400079800280CD00299102909D1302121703C
:101D7400A11C700601D5582000E0782060700C1C6E
:101D8400F10605D50DE068461821085C2070013481
:101D9400013A511C0029F6DC03E030212170013B9B
:101DA40001349F42F9DB1AA9CB19453B1978013F4D
:101DB4002170013B0134002FF8DC03E02023237061
:101DC400013A0134002AF9DC1BB0201CF0BC02BC2F
:101DD4000847C04696720000A77200000100008008
:101DE4000F000080F0B587B0039005910292041CA7
:101DF4000BE1252B01D1002602E02370013401E11F
:101E0400059B5F1C05975D782B2D0DD02B2D04D8D9
:101E1400202D0BD0232D10D10AE02D2D02D0302DF2
:101E24000BD107E0102306E0042304E0082302E0BA
:101E3400202300E001231E43E2E7281CFFF7D0FE25
:101E4400002805D005A8FFF7D2FE029D071C10E06C
:101E54002A2D03D00127029D7F420AE00298013710
:101E64000597029D07680435002F02DA10237F428C
:101E74001E43059B1A782E2A02D00120404218E006
:101E84005A1C049205925B78181C0293FFF7A8FE73
:101E9400002803D005A8FFF7AAFE07E0029B2A2B1F
:101EA40006D1049B0133059328680435002800DA21
:101EB4000020059B19786C2906D0682904D04C2988
:101EC40002D00121494201E001330593059B1B78AF
:101ED4006E2B60D06E2B0DD8632B17D0632B04D8D8
:101EE400252B5FD0582B66D15EE0642B60D0692B24
:101EF40061D15DE0732B1BD0732B02D8702B5AD1A8
:101F04003CE0752B65D0782B55D14FE0F00603D516
:101F140005E0202323700134013F002FF9DC2B68F6
:101F240000E02023013F23700134002FF9DC23E07B
:101F34002A68131C01E001330138002802D0197803
:101F44000029F8D1991AF30603D506E0202323705B
:101F54000134013F7B1C9942F8DB002303E0D05C91
:101F64000133207001348B42F9DB03E0202323701A
:101F7400013F0134B942F9DB043528E07A1C02D16F
:101F840001231E430827009001962B1D0293201C59
:101F94002968102232E02B1D029303982B68221A21
:101FA4001A602FE023700EE040231E43102211E03C
:101FB40002231E430DE025232370059B1A78013468
:101FC400002A02D02270013401E0013B05930295FE
:101FD40018E00A222B1D6C2902D1029329680AE019
:101FE400682906D102932988B50704D50904091480
:101FF40001E02968029301960090201C3B1CFFF726
:102004000DFE041C059B01330593059B1B78002BD7
:1020140000D0EEE62370039A07B0A01AF0BC02BC0D
:1020240008470EB400B582B003AA02CA0192FFF7B2
:10203400D9FE02B008BC03B018470FB430B5C3B022
:1020440046AA02CA01AC201C4192FFF7CBFE051C34
:10205400201CFFF7A9FB43B0281C30BC08BC04B00B
:1020640018470FB430B5C3B046AA02CA01AC201C4D
:102074004192FFF7B7FE051C201C00F0C3F843B0E3
:10208400281C30BC08BC04B018470000024B187070
:10209400024B19707047C046E4040040E504004058
:1020A40008B500200021FFF7F1FF08BC01BC004780
:1020B40008B5044A044B1A60FFF7F2FF08BC01BCE0
:1020C4000047C046B8720000E804004008B5074A5B
:1020D400137808331B061B0E13707E2B03D900F0F4
:1020E400C3F8FFF7DDFF08BC01BC0047E50400406E
:1020F40008B500F0B9F8FFF7D3FF08BC01BC0047EE
:10210400F0B520380006000E8300C018274B1B686A
:1021140083B0C3180193264B1878264B1978021DF7
:10212400CB1D12061B06120E1B0E00F08BF80025A9
:1021340017E001200021013400F09FF8240601205B
:10214400002100F09AF8240E0120002100F095F8F7
:10215400082CEED101352D062D0E052D01D10026BA
:102164001AE00024E5E7019A535D1F4201D10024DF
:1021740000E03F240120211C00F07FF80120211CF5
:1021840000F07BF801350120211C00F076F8052DC4
:10219400E9D10136082E05D080277F04B7403F0ED1
:1021A4000025E0E703B0F0BC01BC0047E8040040B0
:1021B400E4040040E504004008B50D2803D1104BA9
:1021C40000221A7019E00A2802D100220C4B11E0F7
:1021D400031C203B1B061B0E5F2B00D93F20FFF77F
:1021E4008FFF074B1A7806321206120E1A705E2AF7
:1021F40003D900221A70FFF769FF08BC01BC00472D
:10220400E404004010B5041C02E00134FFF7D4FFDD
:10221400002C02D020780028F7D110BC01BC004764
:1022240008B520235B6A00F003F808BC01BC004732
:10223400184708B520239B6A00F003F808BC01BCCA
:102244000047184710B52024E46A00F003F810BCD6
:1022540001BC0047204708B520231B6B00F003F89E
:1022640008BC01BC0047184708B520235B6B00F08D
:1022740003F808BC01BC0047184708B520239B6B32
:1022840000F003F808BC01BC0047184710B5041C53
:10229400C7210020FFF7F1FF60000019142104F0AA
:1022A400C5FE0106090E0120FFF7E7FF10BC01BCC3
:1022B400004708B5FFF71CFF08BC01BC004710B578
:1022C40082B0019001AC217801208908FFF7D5FF85
:1022D400617801208908FFF7D0FFA17801208908DF
:1022E400FFF7CBFF02B010BC01BC004708B5FFF7F5
:1022F400A9FF08BC01BC0047F0B59DB00B93019148
:1023040022AB19780A91171C5A780992474E9B7888
:1023140008933388051CAB420AD00CAC201C291C42
:1023240000F096F84248211C082204F0BAFA3580DD
:102334003F4CA379002B75D00199013BCB181B06A8
:102344001B0E03936279013ABA181206130E002A7F
:1023540068DB039A5F2A65D8081C391CFFF7C6FF9F
:10236400236826791B0A36061E43301C0FA9302227
:1023740004F0CDFB0023019D029300244BE0302C9C
:1023840006D13036301C0FA9302204F0C0FB0024E3
:102394000FAB195D0791E3185A7806929B78059361
:1023A4000B9B002B1BD00A9A91420BD1069B0999D7
:1023B4008B4207D1059A0899531A1A1C531E9A4145
:1023C400049201E0012304932A063B06120E1B0E1D
:1023D400191C101CFFF78AFF0499002911D01BABAC
:1023E4000022DA7014216A468A5C69469A701822BF
:1023F400515C6A4659701C218A5C1A701B98FFF75D
:102404005EFF039B01359D4201DD019D0137029969
:10241400013102910334064B5A799B795A43029B4A
:102424009342ACDB1DB0F0BC01BC00471800004077
:102434004018004000B5054B1B6883B0009300238F
:10244400FFF75AFF03B001BC0047C0469874000070
:1024540030B580231B0283B0051CC818C000694630
:10246400082204F054FB281C6946082204F019FAD7
:1024740003B0281C30BC02BC0847000000B5064B62
:1024840000201A78002A05D0013010330828F8D12A
:102494000120404202BC0847EC04004000B5036838
:1024A400072B06D8044A1B010021995401235B42DF
:1024B400036001BC0047C046EC04004008B5044872
:1024C4000021802204F0E3F908BC01BC0047C046A7
:1024D400EC04004038B50B4C251C8035FFF724FB79
:1024E4002378002B08D06368834205D80023237027
:1024F400E068A36800F008F81034AC42EED138BCB0
:1025040001BC0047EC0400401847C046F0B583B056
:1025140001900E1C171CFFF7B1FF051C00280EDBF1
:10252400094C030108331E511B195F60FFF7FCFAC5
:1025340001992B011A194018506001221A5503B051
:10254400281CF0BC02BC0847EC04004008B504F0A9
:1025540013FA08BC01BC004700B50422002801D0CE
:10256400024B00E0024B1A6001BC00470C8002E001
:10257400048002E000B5042802D8024B8000C15058
:1025840001BC00475C18004008B5042807D8054B77
:102594008000C358002B02D0081C00F005F808BCCA
:1025A40001BC00475C1800401847C046014B18782E
:1025B4007047C0466D05004000B5074B1B78002BE3
:1025C40001D0012003E007238342804140420006FA
:1025D400000E02BC0847C0466E05004000B5022844
:1025E40013D0022802D8012807D108E0032809D013
:1025F400042802D18030FF3008E0002006E02023C8
:10260400586803E02023186800E01C2002BC084737
:1026140008B503200021FFF7B7FF08BC01BC004741
:1026240008B5011C0420FFF7AFFF08BC01BC00473C
:1026340008B5FFF789FA08BC01BC004708B5094B87
:102644001B78002B0AD0002801D0002004E00120D0
:1026540000F0C6FE0006000EFFF718FE08BC01BC21
:102664000047C0466D05004008B5FFF727FF00F09E
:1026740061FE00F077FF00F0BFFC034803F028FE82
:1026840008BC01BC0047C046ED2A000038B50D1C4B
:10269400814201D2002011E0041C0CE0201CFFF751
:1026A4008BFF002806D0012004F04CFA201C0121E5
:1026B40004F00EFB0134AC42F0D9012038BC02BC5A
:1026C4000847000008B5022809D0022802D80128CA
:1026D40018D107E0032807D0322813D106E0802060
:1026E400000205E0002003E0C02000E08020C002DA
:1026F400064A0A40531E9A410B0B000BD1180918C5
:10270400FFF7C4FF08BC01BC0047C046FF0F000030
:1027140008B504F0F7FA0448FFF7C0FE0348FFF7D2
:10272400BDFE08BC01BC00471C0000402000004066
:1027340038B50378051C112B01D0012B21D10524B8
:1027440003E02B5D002B08D101340C2CF9D1EB7A7A
:10275400002B02D104F0D6FA13E0E30702D404F00C
:10276400D1FA01E004F0C2FA2C1923789800C318B6
:10277400580005492A1CFFF7C9FE044B18600023C2
:10278400237038BC01BC0047352700001C00004002
:1027940010B50C220D49041C04F083F80522002313
:1027A400A15C01325B180C2AFAD19800C018084BBE
:1027B40040000849221CC018FFF7A8FE064B186009
:1027C400201CFFF7B5FF10BC01BC00474C180040AB
:1027D400DC050000952700002000004038B5074CB8
:1027E400051C201CFFF75AFE281C05490022FFF790
:1027F4008DFE206038BC01BC0047C0462400004068
:10280400792D000010B5041C002806D1064B1B7856
:10281400002B02D00548FFF7E1FF201CFEF780FCE7
:1028240010BC01BC0047C0466D0500403075000077
:1028340010B5074C074B2060211C1888042201F0B6
:102844003DFF21680448FFF7F8FB10BC01BC0047BA
:102854005818004074180040B874000070B5041C87
:10286400151C1E1C022905D0022909D3032904D0F2
:10287400002019E080231B0201E0C023DB02E418DE
:10288400200BFFF799FE00280DD0012004F05AF91F
:10289400311C2A1C201C012304F0ACF90648291C15
:1028A400221CFFF7DEFB0120FFF7C2FF0348FFF7FE
:1028B40095FF70BC01BC0047BE740000983A00004C
:1028C400F0B5A1B0041C0D1C161C1F1C32286BD0C3
:1028D4000020FFF7B3FE0020012103F0A3FF012035
:1028E400FFF7B9FC2D2C59D02D2C0FD8212C21D039
:1028F400212C04D8002C19D0202C76D124E02B2CA8
:1029040037D02B2C3AD8282C6FD12DE0502C59D00D
:10291400502C04D8322C47D03D2C66D14CE0642C8A
:1029240046D0FF2C59D05A2C5FD14EE0281CFFF71B
:1029340055FE37E0324B9E4257D1324B9D4254D123
:10294400314B01221A7050E0F643B5424DD1281C98
:10295400FFF732FE002848D0012004F0F3F8281CC9
:10296400012104F0B5F940E0281C311CFFF7AAFE50
:102974003BE0281C311C04F0DCF813E0802E01D964
:10298400002433E0281C6946321C04F0C0F81F4BB5
:1029940069461888321C01F091FE2DE0281C311C78
:1029A400FFF774FE041C21E0381C03F0C1FF1CE097
:1029B400381C00F033FB18E02D06280E311C00F003
:1029C40045FD12E0FFF7A4FE0FE0281C3604431E69
:1029D4009841310C03F08CFC07E00D4B9E4204D16E
:1029E4000C4B9D4201D1FFF7E9F801240A48FFF797
:1029F400F5FE201CFFF71CFF21B0F0BC01BC004712
:102A040065646F6D20646F676E0500407418004044
:102A1400654D746F6F626552983A0000F8B5041CF6
:102A240010200D1C171C00F0DBFC00280AD003F05A
:102A34006FFB01380006000E012803D80120FFF7C0
:102A4400F7FE42E0FFF764FE637A227A1B02134327
:102A5400A27A12041343E27A12061343022B01D022
:102A6400042B01D100260DE0194B00221A7000201E
:102A7400FFF7E4FD0121002003F0D4FE0120FFF75D
:102A8400EAFB01263A1C291C201C00F069FC251CC9
:102A9400011C0120FFF778FD0C350120FFF7C8FE6B
:102AA4000C48291C0C2203F0FCFE237B112B01D0C3
:102AB400012B0AD1002E08D0DA0603D5281CFFF713
:102AC40067FE02E0281CFFF733FEF8BC01BC004798
:102AD4006F0500404C18004008B50020FFF7A8FE21
:102AE40008BC01BC0047000008B5044A1080081C5B
:102AF40000F058FD08BC01BC0047C04674180040F3
:102B0400F0B591B0FFF7F4FA00F0D8FA060603F036
:102B1400EDFB051C00F022FA354A041C09A8631ECB
:102B24009C41031C83CA83C383CA83C31268360EC1
:102B34001A60002C01D12F4900E02F492F48FFF7DC
:102B440090FA002C1AD000F087FA011C2C48FFF7E9
:102B540088FA002400F0FEF90019037D002B0AD046
:102B6400062C02D10A20FFF727FBA30009AA254857
:102B7400D158FFF776FA0134072CEBD100F090FA24
:102B84003C2104F053FA011C1F48FFF76AFA1F485E
:102B9400FFF767FA731E1B061B0EFD2B03D91C4897
:102BA400FFF75FFA07E00321301C04F03FFA011C31
:102BB4001848FFF756FA03F093FB072400942C7887
:102BC40001946C780294011C681C421C40780390A8
:102BD400531C527804925A7805929B7803220693E8
:102BE4000D480823FFF73DFA11B0F0BC01BC0047C3
:102BF4009C740000CA740000CD740000D1740000FD
:102C0400E4740000E9740000ED7400000075000035
:102C140009750000FB7400000E75000038B5FEF75E
:102C240083FF041C03F0C5FD00283CD0264B1A7812
:102C3400264B002A24D11C600020FFF7FFFC244B04
:102C44001B78002B02D02348FFF7C8FD224C2378C1
:102C5400002B0FD0FFF708FB0121002003F0E2FD59
:102C64000120FFF7F8FA03200021FFF78DFC002371
:102C7400237001E0FEF772FA134B01221A7020E070
:102C84001B68E41A154B1B889C4201D9FEF796FF7A
:102C9400134A9B189C4214D9FFF732FFAF2000015E
:102CA400FEF752FF0DE003F084FD041C002808D158
:102CB400054D2B78002B04D0044B1860FEF764FC00
:102CC4002C7038BC01BC00476C050040481800401B
:102CD4006D050040983A00006F0500401A0000405E
:102CE40048F4FFFF08B5FEF73FFF1C4B00221A60B3
:102CF4001B4A0321116002221A601A4B23221A6014
:102D04000122043B1A600C33AA221A6055221A606D
:102D1400043B1968FF220A40232A02D01B68D90504
:102D2400EBD5114B1A685105FBD5104A03211160EC
:102D34000C32AA211160552111601968FF220A4042
:102D4400232A02D01B689A05D7D5094B01221A60A1
:102D5400FEF713FF08BC01BC0047C04600C01FE0DB
:102D640004C01FE084C01FE088C01FE080C01FE0D3
:102D740000C11FE0F0B583B0FFF7CAFCFFF79EFB6C
:102D84005E48FFF75AF9FEF7CAF95D4B1B683C2011
:102D9400C01A0006000E03F0AFFD0120FFF7DCFBB4
:102DA4000020FFF746FAB921082003F085FE554DAF
:102DB4000020FFF7D1FB03202860534B1A6802431D
:102DC4001A60524A524C1168214011608021490016
:102DD40029601D682943196011680C4014604D492D
:102DE4001C68214019604C491468214011608021FD
:102DF4001468C90521431160484A146805210C432D
:102E04001460043214680425AC4314601468012669
:102E1400B4431460083A1568414C2C431460414C87
:102E2400226802252A4322603F4A1F683A401A60FA
:102E34003E4B1A6882431A601A6832431A603C4B4C
:102E44001A6811433B4A1960156000221F681A6012
:102E5400FFF748FF384A01235B421360012003F067
:102E64009FFC23681A1C2A40019217D023681D4333
:102E7400256003F00FFA0020FFF7B0FC00F0ACF976
:102E84002E4B2F4C1A682188914233D01B68238023
:102E940000F06CF8208800F055F92BE0002003F0D6
:102EA40093FC284C374219D00121002003F0BAFCCE
:102EB400FFF71EF90020FFF7C1FB0120FFF7CBF954
:102EC4006B461A1D1378022023700021FFF75CFB68
:102ED40003200021FFF758FB1B4805E0FA2080007F
:102EE4002670FFF77BFC1948194B1B78002B01D087
:102EF400FFF774FC03B0F0BC01BC0047527500003E
:102F0400204002E0048002E0088002E000C002E009
:102F1400FFFFFCFFFF7FFFFFFFFFFF3F48C11FE0F4
:102F240005800000004002E0FFFFFEFF04C002E055
:102F340040C11FE0C0C01FE024000040244002E064
:102F4400701800406F050040983A00008813000094
:102F54006D0500400048704778180040024B18780F
:102F6400431E98417047C0467818004030B51F4D45
:102F74002B788BB0002B35D001AC201CFFF7E6FA80
:102F8400AB7862689A422DD16B78A2689A4229D1B3
:102F9400A369EB181B7D002B24D0002003F014FC44
:102FA4000121002003F03EFC0020FFF747FB012035
:102FB400FFF751F9083500210020FFF7E5FA291C35
:102FC4000C220B4803F06DFCFFF7F0FA002806D042
:102FD4000848FFF703FC281CFFF7DAFB02E0281C73
:102FE400FFF7A6FB0BB030BC01BC004778180040CB
:102FF4004C18004060EA000010B5074CA0204002C5
:10300400211C3C2203F083FD2378012B01D00023F3
:10301400237010BC01BC00477818004000B583B091
:1030240001A93C2201900B4803F03BFC012003F072
:1030340089FD0121142003F04BFEA02001993C22BC
:103044000123400203F0D6FDFFF7D6FF03B001BC15
:103054000047C0467818004038B50E4B03205C7812
:1030640000F0BEF9002808D10C2C03D90C3C24062E
:10307400240E02E0002C00D10C24074D054B281C23
:103084009B780649221CFEF7CCFF281C38BC02BCE6
:103094000847C04678180040B41800402E7100005C
:1030A40000B5044B1888044B984200D1002002BCA0
:1030B4000847C046BE180040FFFF0000014B1878C7
:1030C4007047C046BC18004008B503F021F800283A
:1030D40001D0002004E0044B1878FF38431E9841C7
:1030E40008BC02BC0847C046BC18004010B582B0FA
:1030F400041CFFF7E9FF002801D1002C19D16B460D
:1031040007331C700D4B002C05D01A7801321A704D
:1031140003F006FD00E01C70012003F013FD074BD3
:103124001878074B6946C01807310122012303F0C0
:1031340061FD02B010BC01BC0047C046BC18004091
:103144000250010008B5142103F074FF0906002998
:1031540002D10120FFF7CAFF08BC01BC00470000F0
:1031640008B50B4B1B78FF2B04D09A00D318094ADF
:103174009B001380012003F0E5FCA82040020549D0
:103184000222012303F036FD08BC01BC0047C046FF
:10319400BC180040BE18004008B5002803D1012324
:1031A400064A5B421370012003F0CCFC1520012178
:1031B40003F08EFD08BC01BC0047C046BC180040AB
:1031C40008B5A82040020349022203F0A0FC08BC71
:1031D40001BC0047BE18004008B502F099FF124B2D
:1031E4000006000E1870002816D1104B1B78013B06
:1031F4001B061B0E012B08D803F092FCFFF7E0FF1F
:103204000020FFF7C9FFFFF7ABFF084B1B78022B29
:1032140002D10020FFF76AFF034B1A78034B1A70A0
:1032240008BC01BC0047C046BA180040BB180040A7
:1032340030B583B06B46002207331A7000240B4B61
:103244006D460735E018291C012203F060FC0134A7
:103254002B782406240EFF2BF1D1A01E044B00066C
:10326400000E03B0187030BC02BC084702500100C5
:10327400BC18004008B502F04BFF064B0006000ED8
:103284001870054B1870FFF79BFFFFF7D1FF08BCC0
:1032940001BC0047BA180040BB18004008B5FFF74E
:1032A400C7FFFF2801D1FFF78BFF0120FFF774FF51
:1032B400FFF756FF08BC01BC004730B500230024CB
:1032C4000AE0002C01D0002500E0CD5CC554CD5CA3
:1032D400002D00D1012401339342F2D330BC01BC50
:1032E4000047000030B5431F1B061B0E012B1BD9E2
:1032F400042800D102200E4C42018C2518326D00A6
:10330400A2186319FC3415685560022801D01D68A1
:103314005D60043B043AA342F5D1054B4201D15010
:10332400022801D0FC33596030BC01BC0047C046C0
:103334007405004008B5084B00221A809022002131
:103344005200064803F0A3FAC020DB21FFF79EF9E0
:1033540008BC01BC0047C04670050040740500402D
:1033640038B51D4C037A2371231CFC335A600D1CA1
:10337400601D09682022FFF7A0FF201CD8222530F9
:103384006968FFF79AFF154AD42312885B009A42B2
:1033940001D9FFF7CFFF012003F0D4FB0F4D2B8899
:1033A4009801C018C0230C4C1B038000C018822253
:1033B400211C52000123206003F01CFC002003F0B8
:1033C400C1FB20792168FFF78DFF2B8801332B8007
:1033D400206838BC02BC08479406004070050040D1
:1033E40000B501380006000E102804D8154B8000E3
:1033F400C258154B9746002022E0187920E05879EE
:103404001EE098791CE018891AE0588918E0988918
:1034140016E0D88914E0D86912E0186A10E05869F7
:103424000EE0053300E00633D87F09E00733FBE7FD
:103434000833F9E7188A03E0986901E0283318781B
:1034440002BC0847687500009807004038B50C1C9A
:10345400112879D83E4B8000C3589F463D4B994272
:1034640072D13D493D4A0B1C31CA31C313CA13C33F
:1034740023CA23C330CA30C34FE0642964D80C067E
:10348400354B200E1871FEF701FF46E0631E9C4188
:10349400314B5C7141E0631E9C412F4B9C713CE0BD
:1034A400631E9C412C4B05331EE02B4B198134E0E9
:1034B400002949D0284B59812FE0002944D0264BBC
:1034C40099812AE000293FD0234BD98125E0224B62
:1034D400D96122E0204B19621FE01F4B59611CE0A7
:1034E400631E9C411C4B0633DC7716E0631E9C4133
:1034F400194B0733F8E7FEF7B7FE174B0833F3E72A
:10350400FEF7B2FE144B1C8207E0134B996104E0F2
:10351400631E9C41104B28331C70114B0E4C012030
:10352400236003F00FFBFF200121000303F0C0FB25
:10353400012003F007FBFF20211C2C2201230003A0
:1035440003F058FBFFF764F838BC01BC0047C046E1
:10355400AC7500007501FADE98070040F4750000B0
:103564000800725038B50C4CFF202C220003211C9B
:1035740003F0CDFA2268094B9A4209D0084A231C69
:1035840023CA23C313CA13C323CA23C330CA30C3F1
:1035940038BC01BC0047C046980700400800725080
:1035A400F475000030B58BB008A9041C00F064F871
:1035B400002857D0FEF7FAFF002802D02D48FFF765
:1035C4000DF9089C6378012B06D0002B4DD0022BFB
:1035D40019D0032B42D130E003AD201C291C00F08C
:1035E40051F8002842D0089B5A79197912020A43EB
:1035F4009979DB7909040A431B061A43201C291C08
:10360400FFF70CFA31E0E17AA37A09021943237B2C
:103614001B041943637BE27B1B061943A37B120241
:103624001A43237C1B041A43637C1B061A43231C82
:10363400207A1233FFF744F917E06D46263505ABBF
:103644000093201C07A906AA2B1C00F037F82A882F
:1036540007980699059BFFF701F906E0FFF73CFA86
:10366400002003E0201CFEF7DBFF01200BB030BC80
:1036740002BC0847983A00000860007808384342C2
:103684005841704730B5C478837824021C43021C27
:10369400183C18322404240C0A60002308E0C518DE
:1036A4002D7E0133002D03D1D3184B60012002E09D
:1036B400A342F4DB002030BC02BC084730B5039CB5
:1036C400051C10352560447B057B24022C43857B37
:1036D4002D042C43C57B2D062C430C60417A047ABF
:1036E40009022143847A24042143C47A2406214311
:1036F4001160C278817812020A43103A1A8030BCF1
:1037040001BC004730B583B0019306AB1D78074B6D
:10371400041C03604160028101A904220A3003F001
:10372400C0F803B0A57330BC01BC004735370000B6
:10373400085C7047F0B595B007931AAB80CB1B7843
:103744000F931CAB1C781DAB1B7804900D910E924B
:103754001093388803F044FB0006000E0690002CFA
:1037640005D11099002902D1002209920BE012AC74
:1037740038882E21221C03F0FFFA23795E00F61804
:103784003606360E0996079B002100250026029373
:103794000A910B9108910C95059646E0039A202A0C
:1037A40003D1059B0A950B96089312AC0399221C2E
:1037B400388803F0E1FA0299079A914201D1A4787A
:1037C4000C9412AC23790999CB189B190498119382
:1037D40000F075F9119A824212DD109B002B08D07B
:1037E4000899002905D000220A9D0B9E059102929A
:1037F40025E0099BF6183606360E351C01211DE01E
:10380400039A0A2A19D0059B01331B061B0E059344
:10381400237925787519F618029B01331B041B0CB8
:103824002D06360602932D0E360E0E9802990D9B28
:1038340000F09FF803900028B0D1002102910F9A64
:10384400002A01D100250BE0049800F038F90C9906
:103854000B061B165D1B2818C50F2D18ED052D0E24
:10386400079A140639E00D9B211C0E9800F081F88C
:103874000390039912AA388803F07EFA049A4B2124
:1038840069440B7811784A226A44107802061216A9
:103894005218D54203D54042401A05062D0EAA18E7
:1038A40039881B060992069A1B160891D31A00D56B
:1038B400002304994A789A180A92B91C042268468B
:1038C40002F0EFFF08980399099A0A9B03F0A8FAFB
:1038D4002D182D0601342D0E2406059A0799240E61
:1038E40053189C42BFDB029A002A2FD012AC2E211F
:1038F4003888221C03F040FA0323E3560699C91AB8
:10390400029101D50022029203243B880499069374
:1039140012AB02229A560B78D3185B190793029ABA
:103924004B786846D318B91C0422039302F0B9FFFC
:1039340006982E21079A039B03F072FA013C2D1876
:1039440024062D06240E2D0E002CDED11E9B002BEA
:103954000AD00F99002905D0049800F0B0F81E9AF7
:10396400108001E01E9B1E80059815B0F0BC02BCBF
:1039740008471847F0B50C1C0F68496891B00891C6
:103984003D21099000230FAA6944258AA67B0DA82E
:1039940013700B700422099902F083FF208903F04D
:1039A40029FA002800D185E0002F00D182E0221CF2
:1039B400083220890A9203F013FA0006030E0B90D2
:1039C4000793B10736D144E00A9A01230092F20822
:1039D4001A400192B2081A400292720813400393EB
:1039E4006B463A330493391C089A2B1CFFF7A2FE4A
:1039F40000285FD0451900E001352D042D0C0898EE
:103A0400291C00F05BF82028F6D00A28F4D06B4675
:103A14003A331A880FAB100419780014884200DD79
:103A24001A700FAB5A7807998A185A700DAB5A78E6
:103A34008A185A700898291C00F040F8002838D0D9
:103A44000DA8079B427809999A18CB789A42BBDD56
:103A54002FE0F20616D535236B441B78099807939B
:103A640000F033F80B99079A4B0ED31A4008181834
:103A740035236B441870099800F027F83D216944F8
:103A8400087005E06A461C239B5C3D226A4413705F
:103A94000A9900230293039336070FAB0091049312
:103AA400F60F2B1C0DA8391C089A0196FFF742FE4D
:103AB4004519658211B0F0BC01BC004738478278D3
:103AC4000378D01A0004000C7047C2784378D01AE7
:103AD4000004000C70470000012051E21EFF2F017A
:103AE4003600003A010050E12200009A020011E180
:103AF4002300000A0E0211E38111A0010830A00383
:103B04000130A013010251E3000051310112A03130
:103B14000332A031FAFFFF3A020151E300005131B0
:103B24008110A0318330A031FAFFFF3A0020A0E3D6
:103B3400010050E10100402003208221A10050E156
:103B4400A1004020A3208221210150E12101402035
:103B540023218221A10150E1A1014020A32182213E
:103B6400000050E32332B0112112A011EFFFFF1A1D
:103B74000200A0E11EFF2FE10100A0030000A0133A
:103B84001EFF2FE1010851E32118A0211020A023DA
:103B94000020A033010C51E32114A021082082222B
:103BA400100051E32112A02104208222040051E3D9
:103BB40003208282A12082903002A0E11EFF2FE127
:103BC4001FFF2FE10000A0E1000050E30000E0131C
:103BD400190D00EA000051E3F8FFFF0A03402DE944
:103BE400BCFFFFEB0640BDE8920003E0031041E098
:103BF4001EFF2FE108B5054B1B68002B03D0081CE2
:103C0400111C00F005F808BC01BC0047E4090040A1
:103C14001847C04610B506480468002C04D0081C98
:103C2400111C1A1C00F006F810BC01BC0047C04669
:103C3400E00900402047C046024B1860024B19605F
:103C44007047C046E4090040E009004008B501F0AF
:103C5400BBF9084B08491860002201F039FC01F057
:103C64003BF9064800F0F8FC054800F0FBFC08BCF2
:103C740001BC0047D8080040E8090040F93B0000B7
:103C8400193C0000F0B5C9B003934EAB1E880192F5
:103C9400072E01D8092704E0771C7F1005373F045D
:103CA4003F0C45AC2171090A617169460A1D3B0646
:103CB40011781B0E019A0293A3703B0AE370130A56
:103CC40005AD2070E371000A002380226070A171A9
:103CD4002372637200215200281C02F0D8FD029A5C
:103CE40004235B426B70530001330021AB703E230D
:103CF40029705B4206A8211C0A22EB7002F0D1FD58
:103D0400002E05D0684622300399321C02F0C9FD0A
:103D1400124880235B00838000F0D0F9104C0237F6
:103D240005237A00237001236370A28005A9A0688B
:103D340002F0B7FD201C00F0B9F969460A1D094BD1
:103D44001188094A198000231370084A1360084A2D
:103D540049B01360F0BC01BC0047C046FC0A0040F7
:103D6400CC070040DC080040DE080040C4070040E7
:103D7400F4090040F8B5314C061C201C0F1C00F05F
:103D8400E7F923780122051C13420CD02C490A6060
:103D94002C4A002111602C4A2C4912885218120412
:103DA400120C012A28D99A0731D5254B1B68002B00
:103DB40024D0274B1A78052A20D199680A78FF2A3B
:103DC4001CD1244C9A88201C02F06BFD2378FF2B15
:103DD40002D1A378C22B01D01F4827E0237BE27ACB
:103DE4001B029B18002B01D01C481FE0211C0D3125
:103DF400301C3A1C02F055FD00201BE014488023BF
:103E04005B00838000F05AF90E4B00221A60002DEB
:103E140001D101200EE00B4B1A68511C1960FA23E2
:103E24005B009A4201D8281C04E00D48FEF719F9FA
:103E340001204042F8BC02BC0847C046DE080040EE
:103E4400C4070040F4090040DC080040FFBFFFFF46
:103E5400FC0A0040FC0900402076000025760000A2
:103E64002A76000030B5141C0C4A0D1C1188031C62
:103E7400481C108083B01A1C02202B1C0094FFF7EE
:103E840001FF281C211CFFF775FF002802DDFDF748
:103E94005BFEF6E703B030BC02BC0847C80700402D
:103EA40038B500F0EBF8194B0024194A19481C7076
:103EB40080235B00938018498380184B9160836052
:103EC40000F0FCF8164B1C60104C201C00F040F96C
:103ED4002378051C9A0716D40028F5D0FDF75FFE59
:103EE400281CFDF731FE0E4B1A6801321A60FA23C2
:103EF4005B009A42E8D90B48FEF7B3F80A48FDF78D
:103F040023FEFDF75BFE38BC01BC0047DE08004021
:103F1400CC070040FC0A0040E0080040D8070040FD
:103F2400F40900402C7600001027000030B595B04D
:103F34000C22051C0C1C4C48002102F0A8FC0C228D
:103F440000214A4802F0A3FCFDF756FD484B00222D
:103F54001A60FFF7A5FF694601230B7004220023B2
:103F64004B708A70CB700B714B71E278CB718A7194
:103F740062790A7222794A72A278CB728A72637861
:103F84000B7323783B484B730E22FFF76BFF00281B
:103F9400E1D12C0A022369465B420B7001234B706A
:103FA4008B700023CB700B714B718D71CC713148C8
:103FB4000822FFF757FF0028ECD1392369465B42FA
:103FC40001220B700C20042340424A708B708A71CA
:103FD40000234A720A2208728A720A73CB700B7128
:103FE4004B71CB71CB724B7322480E22FFF73AFF11
:103FF4000028E2D1362369465B420B700123032279
:104004004B708B7000238A71CB700B714B71CB7129
:1040140018480822FFF726FF0028EBD16C46292315
:1040240023700223012563700023A570E3702371BC
:104034006371A571E3710F4869460822FFF712FF07
:104044000028EBD1694600220B48FFF70BFFFA204A
:10405400C000FDF779FDFFF723FF054B15B01D6088
:10406400002030BC02BC0847CC070040FC0A0040DA
:10407400F809004003700000024000000A4BDA789F
:1040840038218A43DA70DA7807218A4304214942C5
:104094005961191CDA70303100221A625A620A70AE
:1040A4001A709A707047C046340B0040024B0022CD
:1040B40098605A621A627047340B0040024A042323
:1040C4005B42D06053617047340B004010B50C095B
:1040D4000F224140084B11404900C95A614009046C
:1040E4000C0C0009604002405200D05A090D4840AF
:1040F40010BC02BC0847C0465C76000000B5002333
:10410400002259000123034001320B434008102AC6
:10411400F7D11B04180C02BC0847000010B5002995
:1041240006D044788178611804780919C943C170AC
:104134000649CB6201235B4208624B8304200123BE
:1041440048628A624B7610BC01BC0047340B0040C5
:10415400F0B5CD4C89B000230390271C0370303791
:104164000026BE57002E00D093E0656A002D59D07A
:10417400207F002803D0FDF751FC26771EE0236A38
:104184006A461D781F3215700133618B2362281C27
:10419400FFF79CFF6083C02D04D1DB20FDF73EFCBC
:1041A400242305E0DB2D06D1DB20FDF737FC232398
:1041B4005B42237702E0281CFDF730FCB24C237FDE
:1041C400002B66D1636A013B6362002B61D1A26A52
:1041D400E16A22626162A362E362002A59D1637ECA
:1041E400002B0CD06276608BFFF788FFA74B020A86
:1041F4001A705870236202236083636249E0C0200E
:10420400FDF70CFC039A1178A268002A05D05278B5
:10421400002A02D1A260012300E00023039D0B4386
:104224002B703BE0A378042B4BD1667802231E400D
:104234000BD0C020FDF7F2FB954A964800210C32C2
:104244000423FFF76BFF657023E0A568002D22D0DF
:10425400C020FDF7E3FBE378A26859074025490F26
:1042640029435578ED01294338258B482B400B43CE
:104274000370918815780F2309012B400B43437079
:1042840093881B098370012193889268FFF746FF86
:1042940026710026AFE12379002B01D16426AAE11F
:1042A400C020FDF7BBFBE27838237C481340402252
:1042B40013430370012100220023FFF72FFF257110
:1042C400E7E7C020FDF7AAFBA278714B92009A1889
:1042D400704804230021FFF721FF3D7062782378A2
:1042E4009200D2186E4BD35C6570A37000209BE1E2
:1042F400607C2B78002807D06A4AD318DC3B1B78F3
:104304002B700023637460E1C02B00D058E1616915
:10431400002900DA50E1039F634A3F78634B107031
:1043240005971D785F787F19BC469F78BC44DF7879
:10433400BC446246FF271740FF2F03D0012323719B
:1043440000232FE1E768EA0901976D067A70584F58
:10435400ED0F3D701A78574D00929206520F2A7055
:10436400009A07252F1C544D17402F700F275D7896
:104374003A1C019F2A403A709B782D091B011D436A
:104384004B4A4E4B1D801378002B43D0AB1C8B4201
:1043940042D101234A4A5B4213804A4B656118604B
:1043A40009E0424B464AD85D1188FFF78FFE444B23
:1043B400013718802760434C2768032FF1DD002361
:1043C4002360314BDC680BE0049AA368985C3C4B97
:1043D4001988FFF77BFE049B394A013310803B6048
:1043E400384F3B680493AB42EEDB354F3888FFF718
:1043F40085FE334AA3681080595D020A914205D1B3
:104404005B19FF225B78104098420AD01E4B0122B0
:104414001A71C5E08D4204D0234D012323712B78FA
:10442400C0E0194B234AD97814784807420F9442C4
:1044340015D09A68002A12D05278002A0FD0440F5F
:104444000134072004408143002221439A60D9703B
:1044540030331A70144B197801220A431A700A4B2C
:10446400DA681178012973D1002130331970164BA1
:104474001960164B94681968002340E004489A00B8
:10448400801800222AE0C046340B0040140B004080
:104494008C76000054760000080B00402C0B004082
:1044A4007C76000058760000280B00400C0B00407E
:1044B400200B0040290B0040300B00401C0B004037
:1044C4001E0B0040100B0040240B0040180B004052
:1044D400A75C05784A1C0130AF420FD1111C042A95
:1044E400F6D156490B6056490A60012B15D0002BB2
:1044F40008D0022B17D0032B52D11AE00133032B1F
:10450400BCDD95E04F4B1A78012A02D801225A707B
:1045140046E0FFF7B3FD042344E04A4A117800293A
:104524003ED113703CE0474A1178002938D05370CB
:1045340036E0444B1A78012A32D802221A7000223B
:104544005A62414B1A78012313431B061B0E29E0C0
:104554005969002924D01978022921D151780029D8
:1045640017D0012119713948D97800788C06640F65
:10457400A04215D10724013020403824C000A143B3
:104584000143D97095800022DA602F4B0A221978F2
:1045940004E09580D9602C4B197802220A431A70E2
:1045A400294B1B78059F039A3B4313701D0703D5C2
:1045B400244B002230331A7004235B42214A19E051
:1045C400DB2B02D10123637415E01E4A5369002BCF
:1045D40006DA68461E491F3000785918087108E049
:1045E400D1688888834206DA68461F308968007873
:1045F400C85401335361134CE368002B07D06D4654
:104604001F35281CFDF748FA002800D070E60D4B32
:1046140030331A781106002902DD013A1A7000E0DD
:104624001E70084B3033187809B0F0BC02BC084740
:10463400024A1360024B1960B2E7C046240B0040E3
:10464400180B0040340B0040280B0040300B004096
:104654000C0B004070477047014B18607047C04610
:1046640028000040014B18607047C0462C000040F1
:1046740000B5064B03E059891A1C814203D01B681C
:10468400002BF8D10022101C02BC0847740B004018
:1046940000B5064B03E019891A1C814203D01B683C
:1046A400002BF8D10022101C02BC0847680B004004
:1046B400014B18607047C0466C0B0040F8B50F1CE6
:1046C400151CFFF7D5FF061C002824D0134CC28A02
:1046D40080239B011A432068002101F06BFA2A1DF4
:1046E4001204120C2068022101F064FA20680421EB
:1046F4002A1C01F05FFAB2892068062101F05AFAF7
:104704002068391C08302A1C02F0CBF8291C083117
:10471400206801F081F9F8BC01BC0047700B00402F
:1047240070B5061C081C0C1C151CFFF7B1FF0028F3
:1047340006D1054905480C814D81CE6001F029FB65
:1047440070BC01BC0047C046D40C0040680B00405C
:1047540030B585B0051C6C467223011C6846237075
:104764000E310E230230637001F02BFAEA8A684698
:10477400082101F01FFAAA8A68460A2101F01AFAF0
:104784006A8968460C2101F015FAAA8968460E2147
:1047940001F010FA6A4604200021102301F0F8FA0F
:1047A400054BA86969461B68102200F007F805B09C
:1047B40030BC01BC0047C046280000401847C04632
:1047C40030B583B001AC7123237002236370051CE0
:1047D40042890221201C01F0EDF9221C0420002151
:1047E400042301F0D5FA054BA8691B68211C042297
:1047F40000F006F803B030BC01BC004728000040BC
:104804001847C04630B587B001AC051CA1707023B1
:10481400011C684623700E310F230730637001F0CA
:10482400D0F9EA8A201C092101F0C4F9AA8A201CC3
:104834000B2101F0BFF96A89201C0D2101F0BAF99E
:10484400AA89201C0F2101F0B5F9221C04200021A3
:10485400112301F09DFA054BA8691B68211C112244
:1048640000F006F807B030BC01BC00472800004047
:104874001847C04608B5081CFFF70AFF011C0028AA
:1048840002D0034801F092FA08BC01BC0047C046BC
:10489400680B004010B50123041C0372FFF790FF5E
:1048A400211C044801F082FA0023237710BC01BCC8
:1048B4000047C046740B0040F0B5114C071C201C87
:1048C40085B0151C0E3006220E1C01F0EAFF0123F0
:1048D400A582237200250023E582A7616372211C4F
:1048E400084801F056FA311C1822002306480095A6
:1048F4000195029500F072FF05B0F0BC01BC0047C1
:10490400E40C0040740B0040B4770000F8B5104B81
:10491400061C0F1C1C6815E0201C0E30311C0622DE
:1049240001F0CCFF051C00280BD1237A012B08D100
:10493400201C391CFFF766FF0548211C01F036FADC
:1049440025772468002CE7D1F8BC01BC0047C04699
:10495400740B00400CB430B585B00A1C08AB09A92F
:104964001B78084C0091051C03912068291C01F058
:104974004BFA011C206801F04FF805B030BC08BCAC
:1049840002B01847800C004030B5144B83B0051CAE
:104994001C6810E0A369AB420CD101F01DFA6189D7
:1049A4006072A389021CE08A00910621FFF7D2FFFE
:1049B400082323722468002CECD1094B1B6807E000
:1049C4001A68D168A94202D112681A601A1C131C11
:1049D400002BF5D103B030BC01BC0047740B004080
:1049E400680B004010B5041C0A06618982B0120EDF
:1049F400A389C08A00910721FFF7ACFF201CFFF7B1
:104A040049FF02B010BC01BC0047000070B5041C93
:104A1400007A03380006000E151C84B00B7A4A7A1B
:104A2400052866D8354E800080598746032B5AD115
:104A34004D7C0B7C2D021D4302D0012D15D158E075
:104A44004B7B0A7B1B021343A38101F0C5F92C495C
:104A5400021C6072009502910425E08AA389042156
:104A64000195FFF777FF257243E0291C633109069E
:104A7400090E201C29E0052B04D0062B35D0042B6D
:104A840037D101E006230CE01031A38900260391FD
:104A9400E08A103D0521009601960295FFF75AFF22
:104AA4000523237225E0042B1DD110310026103D6F
:104AB4000391E08AA3890521009601960295FFF7E8
:104AC40049FF07232372201C0021FFF79BFE10E0FF
:104AD400052B08D1F5E7062B07D0072B09D1201C9D
:104AE400FFF7D8FE05E0062B03D1201C111CFFF7AD
:104AF40079FF04B070BC01BC0047C0469C7600003E
:104B040030000040F0B5714B051C18688BB004915F
:104B1400002805D06E4B00211C682A1C049BCFE0A2
:104B2400EF79AB793F021F436E782B78012F00D0C9
:104B3400B7E02A7A36021E430592664B6F7A1E400E
:104B44000B2A00D9A2E0644B9200D3589F466A7B9B
:104B54002B7B12021A430592AB7B0793ED7B101C4F
:104B64000695FFF795FD051C002808D10223009047
:104B7400019302900321301C3A1C002374E0301C82
:104B840000F080FC0490002800D19BE0534B1B7F75
:104B9400002B02D05248FDF750FA504C0499201CC7
:104BA400083106220E3001F07CFE6A4614239A5A1C
:104BB400EB68A282A361E68201F01EF9069A130251
:104BC400079A1343A381022323720123608123776D
:104BD40067724448211C01F0DCF8201CFFF7B8FD83
:104BE40070E06A7B2B7B12021A436B4626331A80D1
:104BF4003C4B1C6815E0E38AB34211D1059BDB07EB
:104C040003D5637ABB420BD105E06B462633628938
:104C14001B889A4204D1201C291C049AFFF7F6FE33
:104C24002468002CE7D14DE0EB7AAA7A1B020C35FC
:104C340013430095301C09213A1C2FE06B7B2A7B1F
:104C44001B021343012B02D0022B1AD10FE06B4637
:104C5400263340221A8000220092022201920293FB
:104C6400301C0B213A1C0123FFF774FE2AE00123B8
:104C74000093002301930293301C0B213A1C02235E
:104C8400F2E76B46263300221A8002E06B46263395
:104C940018800093301C01213A1C0223FFF75AFEAE
:104CA40010E0381CFFF7E4FC00280BD0049B0849F3
:104CB400083B2A1C1B0480690C6808321B0C391C35
:104CC40000F012F80BB0F0BC01BC00476C0B0040C4
:104CD4002C000040FF0F0000B4760000840C00405C
:104CE400E4760000740B00402047C04670B584B0E1
:104CF4000E1CFFF7BDFC00280FD00024627AE08A66
:104D0400002503210023009501960295FFF722FE5A
:104D14000448211C01F04AF8257704B070BC01BC9A
:104D24000047C046740B004030B585B0FFF7A0FCC7
:104D3400041C002819D0A189627A6389C08A0025DD
:104D44000091032101950295FFF704FE01F044F858
:104D5400042160722172A389021CE08A0191054931
:104D6400029104210095FFF7F5FD05B030BC01BCAC
:104D74000047C04630000040F0B5037885B0041CFD
:104D84000F1C052B4FD0052B02D8032B75D104E043
:104D94000E2B33D0732B70D156E002AD411D281C6D
:104DA40000F00FFFA178002926D12679E378360296
:104DB4001E43374B1D681CE0281C0E3002A9062236
:104DC40001F07CFD002813D12B7A012B10D1EE8247
:104DD40001F002F8687201F00FF80323011C6881E6
:104DE4002B72E88A6A7AAB8A00910221FFF7B2FD3E
:104DF4002D68002DE0D140E0281C11E00279C37831
:104E040012021A43234B1B889A4236D14379002B52
:104E140033D102AD811D281C00F0D3FE281C1621BD
:104E2400FFF774FD29E00679C37836021E43184B58
:104E34001D6806E0EB8AB34202D1281CFFF72AFD65
:104E44002D68002DF6D118E0134B1B68002B14D1EC
:104E5400C1788378090219430D4B00221B6804E0D2
:104E6400D88A884200D101221B68002BF8D1002A7D
:104E740003D10A48132200F0B1FC094B3A1C1B6809
:104E84000020211C00F00EF805B0F0BC01BC004766
:104E9400740B0040D47700006C0B004004780000D1
:104EA400280000401847C04610B582B0FFF7E0FB69
:104EB400041C00280CD000F08FFF61896072A38964
:104EC400021CE08A00910621FFF744FD08232372A7
:104ED40002B010BC01BC004708B5074A074B1A6072
:104EE400074A084B08481A6000F0E6FA074800F041
:104EF400E9FA08BC01BC0047A40C0040800C004047
:104F0400780B0040700B00407D4D0000094B000001
:104F140000487047E8760000F0B5002A21D0134B12
:104F2400134D1E68134F3270EC1901361E60A642F1
:104F340000D11D600D4B1D682870681C1860A042CC
:104F440001D10B481860094B1B68087818700133AD
:104F5400A34200D1064B013A0131002AF5D1034A9C
:104F640013600020F0BC02BC0847C046A8120040F1
:104F74009C0E00400603000008B5031C0A1C052013
:104F8400191CFFF7C9FF08BC02BC084708B5031C7D
:104F94000A1C0620191CFFF7BFFF08BC02BC084707
:104FA40000B5034B1B68002B00D0986201BC00477E
:104FB400A411004000B5034B1B68002B00D0D8623D
:104FC40001BC0047A411004009480A4B18600023A3
:104FD4000362094B0360094B4360094B8360094B2F
:104FE400C360094B0361094B4361094B83617047FB
:104FF400080D0040A4110040395000001950000071
:105004007D4F0000914F0000A54F0000B94F0000F4
:10501400154F000010B5064C2368186A00F0BAF961
:105024002368002200201A6210BC02BC0847C04654
:10503400A411004010B5104C104A236810491A629C
:105044001A1CFC3211670F49D1670F4A0F490A60D5
:105054000F490A6000211170D861186A0123836026
:105064000C4BC36000F088F9236805220533002047
:10507400DA7710BC02BC0847A41100408C0E004033
:10508400A8110040AC1200409C0E0040880E004065
:10509400A81200409D500000F0B5A74C23680533CA
:1050A400DB7F89B0062B13D1FEF7E8FF2068BA2313
:1050B40080225B005200C2527130FF30FEF7FEFFC7
:1050C4002268BE235B000021D15405320223D3772A
:1050D400994C20687D30FF30FFF73AF8BE250190E7
:1050E40023686D005A5DD00712D503215A1DD1776C
:1050F40000211963914D996B4919012908D8062398
:10510400FA204000D377FCF71FFDFA200001FFE0EE
:10511400BE2252009A5C96077AD5BA2252008024A5
:105124009D5A6400A54202D900F0F0FE251C824C71
:105134002368181CFC33D96F2A1C3C3001F0B1FBE6
:1051440023681A1CFC321564B8225200995C0529A4
:1051540002D0062937D12FE0DA6B79481040794A1A
:10516400191C3C31904224D103A8774C021CE0CC9A
:10517400E0C2A0CCA0C24A7A0C7A12021219002A08
:1051840003D07248FCF76DFF31E0CC798A792402B0
:10519400A41824048E78CA78240C0588002D03D022
:1051A4000430A542F9D1B7E0211C6948FCF759FF46
:1051B4001DE09B6A081C02E0181CDB6A3C30291CB9
:1051C40000F0D8F813E0B826760062489D19FCF781
:1051D40048FF0024AB68195D092C01D0202200E0AF
:1051E4000A225D480134FCF73CFF0A2CF2D1524CF0
:1051F400BA23206880225B005200C2527130FF3013
:10520400FEF75CFF236800221A6305330222DA7773
:10521400494B1A68531DDB7F042B73D04F4B19681D
:1052240031296DDD002119604D484E4B0068196825
:10523400814267D04C4C4D4F0E78E0190131196012
:10524400814200D11C60474B19680F780131196005
:10525400814201D144491960131CFC33196F414B3D
:10526400341C1B6807E01D7801330D70834200D1A4
:105274003D4B0131013C002CF5D13A490B60FC3225
:10528400156F381C00212A1C331C009600F080FD89
:10529400294BB2221B6852009F5468460088B422EE
:1052A40052009852324A01219954B32252009C541C
:1052B400FC33186F854203D0291C321C01F0F1FA2B
:1052C4001D4CBA23206880225B005200C252713008
:1052D400FF30FEF7F3FE20686530FF30FEF7E6FE90
:1052E4002368BE21002249005A545A631A636A781B
:1052F400297812020A439A6305330422DA7701E01B
:10530400013119600199002901D0081C00E0012035
:1053140009B0F0BC02BC08471202A125B2186D0006
:1053240012045819120C0A3101F0BBFA024B1A6824
:10533400A0235B00D4525AE7A4110040FFBFFFFF33
:10534400FF00FF00FF00C20018770000ED760000A8
:10535400F2760000077700000F770000040D00408C
:10536400A8120040880E00409C0E00400603000076
:10537400650100001847C04608B5044B1B685B680C
:1053840000F006F808BC01BC0047C046AC1300405E
:105394001847C04608B5044B1B689B6800F006F824
:1053A40008BC02BC0847C046AC1300401847C046BE
:1053B40008B5044B1B68DB6800F006F808BC01BCA8
:1053C4000047C046AC1300401847C04608B5044B1C
:1053D4001B681B6900F006F808BC02BC0847C046FD
:1053E400AC1300401847C04608B5044B1B685B6902
:1053F40000F006F808BC01BC0047C046AC130040EE
:105404001847C04608B5032802D1054A054B1A605F
:10541400044B1B681B6800F007F808BC01BC00477C
:1054240088770000AC1300401847C046816070477D
:1054340000B543424341002902D1584258410AE091
:10544400002B06D103680868834202D39842804146
:1054540000E00120404202BC084708B543424341F2
:10546400002902D15842584108E0002B02D0012003
:10547400404203E008300831FFF7DAFF08BC02BC01
:105484000847000000B5074BDB6804E0D9891A1C03
:10549400814203D01B68002BF8D10022101C02BCEF
:1054A4000847C046B0130040704700207047000012
:1054B4000048704774770000014BFC331862704752
:1054C400B0130040014BFC3358627047B0130040E6
:1054D40010B50E4B041C1860002A00D10C4A9A60C7
:1054E4000A4B0022DA601A1CFC32596010339361B3
:1054F400084B094813625362236900F011F8636989
:10550400064800F00DF810BC01BC0047B013004081
:1055140034000040AD540000995A00002D59000099
:105524001847C0467047000098B500AF84B06C4679
:105534006423237000236A466370A0700021042052
:10554400032300F025FC054BFC3368461B6A03214A
:1055540000F006F8BD4698BC01BC0047B0130040FB
:105564001847C04698B500AF84B06C4662232370D8
:1055740000236A46637004200021022300F008FC23
:10558400054BFC3368461B6A022100F007F8BD4650
:1055940098BC01BC0047C046B01300401847C04641
:1055A40098B500AF84B06C46612323700123637007
:1055B4000C4BDA68002301E012680133002AFBD1A6
:1055C400A370221C04200021032300F0E1FB054BFF
:1055D400FC331B6A201C032100F006F8BD4698BC6E
:1055E40001BC0047B01300401847C046B0B500AF37
:1055F40084B06C4660232370002363700A4D9223A9
:105604005B00EB5C6A46A370FC3504200021032395
:1056140000F0BEFB2B6A6846032100F007F8BD4684
:10562400B0BC01BC0047C046B01300401847C04698
:1056340098B500AF84B06C46732323700223637063
:105644000221C289684600F0B5FA6A4604200021A6
:10565400042300F09DFB054BFC3368461B6A0421C0
:1056640000F006F8BD4698BC01BC0047B0130040EA
:105674001847C046F8B500AF86B06C4603232370C4
:1056840000260A236370A670051CC289032168469C
:1056940000F090FA291C601D083100F092FA0123F1
:1056A4006A46E372042000210D23267300F070FB88
:1056B400054BFC3368461B6A0D2100F007F8BD4614
:1056C400F8BC01BC0047C046B01300401847C046B0
:1056D40070B50A4B061CDC6809E0201C0830311C3C
:1056E4000622251C01F0EAF8002803D02468002CC7
:1056F400F3D10025281C70BC02BC0847B01300403D
:1057040010B5041C00F06AFA606210BC01BC0047CA
:1057140038B5124C011C201C0622083001F0C1F8D7
:10572400012300255B42201C211CE3816574143095
:1057340000F04CFB0A4B201C2362FFF7E1FFC4235B
:105744005B00E5520748C3235B00E5520C30211C83
:1057540000F01FFB201C38BC02BC0847D8140040D2
:105764005D5A0000B013004070B54278037812020D
:105774001A43174B1B8882B0041C0E1C9A4216D184
:10578400C11C684600F01DFA6846FFF7A1FF002817
:1057940006D0037C052B01D1FFF76CFF002012E03B
:1057A4006846FFF7B5FF002801D001230374094BB5
:1057B4001A1CFF32517E013951761B68201C9B68EC
:1057C400311C00F009F802B070BC02BC0847C046A6
:1057D400B4770000B01300401847C0460FB410B5AA
:1057E400094B82B0FC3304AA9C6902CA201C0192B2
:1057F40000F054FA011C201CFFF7B6FF02B010BCE5
:1058040008BC04B01847C046B013004008B5194B93
:1058140092225200995C012929D1174A9A5C0A42C2
:1058240025D1FF335B7E002B21D05308042B19D8DC
:10583400124A9B009B589F46114800E01148FFF70D
:10584400CDFF0FE0C0211048C90101E00F4803213A
:10585400FFF7C4FF06E09223064A5B000221D154FD
:10586400FFF7C4FE034A044BD15C0131D15408BC98
:1058740001BC0047B0130040250100002C77000054
:10588400F477000014780000EC7700000C78000036
:10589400F8B5071C012824D1204C92267600A35D7C
:1058A400002B31D1A36860681B6800F03BF8051C2D
:1058B40000280CD1236860681B6800F033F8051CCD
:1058C400002807D0A36860685B6800F02BF8FFF736
:1058D40049FE1EE0231CFF335F76114BA755E054AD
:1058E40012E0002810D10D4C92256D00635D022B4F
:1058F4000AD1236860685B6800F014F8A3686068E4
:105904005B6800F00FF86755FFF770FEFFF77EFF46
:105914000025281CF8BC02BC0847C046B013004050
:10592400250100001847C046F0B5051C40782B78C7
:1059340000021843354B83B01840FFF7A3FD6E787F
:10594400041CAB78EF7800285BD0B6063F02B60F94
:105954001F43FFF7D5FE012E02D0022E51D120E0C5
:10596400C3267600A05B00284BD02830291D2018C0
:105974003A1C00F096FFA15B79180904090CA153A5
:10598400C4256D00635B07338B4238DA204B201C3F
:10599400FC335B6A283000F03DF800236353A353C3
:1059A4002DE0C3267600A35B002B2AD16A792B79DC
:1059B40012021A43131C381D033301920090BB4298
:1059C40008DA134B0104FC33090C5B6A281C00F051
:1059D40021F814E0271C2837291C009A381C00F0F1
:1059E40060FF009968460A04011D0888C423120C4C
:1059F4005B00E052A253381C022100F0DBF8FFF7F1
:105A040005FF03B0F0BC01BC0047C046FF0F000017
:105A1400B01300401847C04638B5041C40782378BA
:105A240000021843094B18400D1CFFF72BFD0028FA
:105A340001D0FFF765FE064B1B68291CDB68201CA0
:105A440000F008F838BC02BC0847C046FF0F00004D
:105A5400B01300401847C04638B5051C00F0BAF929
:105A6400041C00F0BBF8636A094A9B18984207D3E8
:105A7400201CFFF7DDFD281C0549FFF7D7FC00E0DB
:105A8400AB60281CFFF794FC38BC01BC0047C0463F
:105A94001027000070B50378033B1B061B0E82B071
:105AA400051C0E1C0C2B5CD83C4A9B009B589F4643
:105AB4003B4B8278FF335A7653E0811C684600F0F2
:105AC40080F8EB7A012B4CD16846FFF701FE0028E1
:105AD40002D16846FFF71CFE0323037469460122C2
:105AE4003048FFF77BFE3CE0411D684600F069F852
:105AF4006846FFF7EDFD041C002832D0AB78002B7C
:105B040013D1052202742A79E97812020A43C28168
:105B1400437400F063F860621434201C2249FFF7D8
:105B240085FC201CFFF744FC19E01D48211C0C30A7
:105B340000F03CF915E08378002B12D10079EB7862
:105B440000021843FFF79EFC041C002809D01430FF
:105B5400FFF73CFC1248211C0C3000F027F9FFF73A
:105B64001FFD0F4B92225200985C012808D10F4A66
:105B7400995C014204D028780E2801D1013199544E
:105B8400074B3604FC33310C281C1B6A00F010F858
:105B9400FFF73CFE02B070BC01BC00474077000038
:105BA400B0130040AC77000010270000250100006E
:105BB4001847C046425401310904090C120A4254E0
:105BC40070474B7903700B794370CB7883708B7873
:105BD400C3704B7803710B784371704708B5FBF7BA
:105BE400A3FF08BC02BC084700B5034B1B68002B8D
:105BF400FCD101BC0047C0466816004010B5064BF6
:105C0400186804E00468C36800F008F8201C002841
:105C1400F8D110BC01BC0047641600401847C046C8
:105C2400024A00231360024A13607047641600405E
:105C34006816004008B5011C024800F0B7F808BC1B
:105C440002BC08476816004008B5011C024800F071
:105C5400ADF808BC02BC08476416004038B5051C02
:105C6400084C05E0291CFFF7F8FB002803DA246838
:105C740020680028F6D123682B60256038BC01BC5D
:105C84000047C0466816004008B5011C024800F0F1
:105C940080F808BC01BC004764160040F8B50B88C6
:105CA40003700B881B0A4370051C4E68032465E0CF
:105CB400422B35D0422B06D8312B5ED3322B0ED952
:105CC400342B5AD81AE0482B09D0482B02D8452B3C
:105CD40053D14AE04E2B40D0502B4ED135E01168C1
:105CE4002955131D0A0431780134322901D0482979
:105CF40002D1120E2A5501341A1C3EE01368111DFC
:105D04002B551A0A01342A5501341A0C2A553278B3
:105D14000134342A02D11B0E2B5501340A1C2CE009
:105D2400136859792955197901342955D9780134D9
:105D340029559978013429555978013429551B7806
:105D440001342B550432013417E028191168171D4A
:105D5400102200F0A6FD10340EE028191168171D5A
:105D6400F82200F09EFDF83406E028191168171D8A
:105D7400F02200F096FDF0343A1C01363378002B03
:105D840096D1E31E2404AB70200CF8BC02BC084777
:105D9400704700B50268131C02E08B4204D01B68F4
:105DA400002BFAD10A60016001BC004700B507E08E
:105DB40003688B4203D10B680360002004E0181CC5
:105DC4000028F5D10120404202BC084700230360AB
:105DD400416070474068704700B5064B1A78FF2A47
:105DE40001D1012200E001321A70024B187802BC82
:105DF4000847C04646000040024B1888421C1A80DF
:105E04007047C04644000040F0B5141C8022920143
:105E1400051C83B00A4300211E1CFFF7CBFE281C7F
:105E240006210122FFF7C6FE2C72294B013CA40077
:105E34006E72E758089E0C242AE0312B27D3322BAC
:105E440002D9442B23D110E032682A5511040134BD
:105E54003A782404331D240C322A04D10A0E2A551C
:105E640001342404240C1E1C11E0331D19683688E7
:105E740001961E1D00290AD0019B002B07D028196A
:105E84001A1C00F00EFD019B1C192404240C01377C
:105E94003B78002BD1D1221F1204281C120C0221A2
:105EA400FFF788FE221C083A1204281C120C042155
:105EB400FFF780FE221C0C3A1204281C120C0A2143
:105EC400FFF778FE03B0201CF0BC02BC0847C046B4
:105ED4008C7800007047000038B50906080E0649A2
:105EE400151C1A1C04AB0C681B88291C00F006F84E
:105EF400002038BC02BC08474C0000402047C04684
:105F0400014B18607047C0466C16004008B5044B3E
:105F14001B68002B01D000F005F808BC01BC004749
:105F24006C1600401847C0460FB410B584B006AADA
:105F3400094C02CA201C0392FFF7B0FE074B0090E5
:105F4400012118680022231C00F038F804B0002056
:105F540010BC08BC04B01847781600407016004006
:105F640010B50D4800F020F80C4B18680C4C0028B4
:105F740004D00C4B198800F01DF801E000F01CF867
:105F84002060074B1B68002B01D0002001E001209A
:105F9400404210BC02BC0847DD5E0000741600409D
:105FA4007016004048000040014B18607047C0461E
:105FB4007C170040002070470020704770B582B005
:105FC4001C1C06AB051C1B88022975D0022903D8AA
:105FD400012900D092E005E0052978D0062900D0F7
:105FE4008CE06EE0627892083D2A04D0201C191CD3
:105FF400FFF7BAFB82E0221C01200121FFF7C8FE53
:1060040062780323134022781B021343013B242BA1
:1060140074D83C4A9B009B589F46FFF7E7FA6DE013
:10602400E078FFF735FC69E0E378002B01D0281C09
:1060340000E00020FEF73CFB60E0FFF773FA5DE050
:106044000020FFF771FA59E0E11C6846FFF7B9FD3B
:10605400A27A637A12021A43281C6946FEF72CFCC2
:106064004CE02079E378000218436179FEF71CFFC5
:1060740044E02179E378A279090219436379120291
:106084001A43281CFEF74CFB38E02179E378090217
:106094001943281CFEF7EEFB30E02079E378000278
:1060A4001843FEF741FE29E02079E3780002184303
:1060B400E179FEF71BFE21E0201C191CFFF7ACFC64
:1060C4001CE0101C211C1A1CFEF7F8FA16E02378B9
:1060D400702B02D0712B11D102E0FEF755FC0DE0BC
:1060E4006378094C201C002B02D0FFF76FF905E000
:1060F4000649FFF79BF9201CFFF75AF902B070BC60
:1061040001BC0047B878000080170040204E000012
:1061140000B5074B1B88002B01D1002006E03B2B68
:1061240003D9782B01D9012000E0022002BC0847E2
:1061340090170040174A802311685B010B431360DA
:10614400154B164A19680A401A60154980220868D6
:1061540012041043086019680A431A60114A124B6A
:1061640011680B401360114B114918680140196004
:10617400C0211068890301431160C0221968120309
:106184000A431A600B4A0C4B1A600C4B01221A701A
:106194007047C046C4C01FE0088002E0FFFFBFFF95
:1061A4000C8002E000C002E0FFFFCFFF04C002E069
:1061B400FF3FF0FF00102000004003E050000040CB
:1061C40000B5002802D0244B01221A60224A136829
:1061D400062B3CD8214A99008A589746012233E07D
:1061E4001F4A802311689B030B43136002222BE098
:1061F4001B4B1A68FF218A431A601A4A19680A431A
:106204001A60032220E0184A1168002921DA0904DF
:10621400890D114A032B03D1144B1980042317E071
:10622400134B198013E00E4B1A68FF218A431A603E
:10623400104A19680A431A60052205E0084B0E4A01
:1062440019680A401A600022034B1A6001E0062311
:106254001360002002BC0847941700404C790000EA
:10626400004003E008000001044003E092170040EE
:106274009017004040000001FFFFDFFF10B5044C01
:106284002078FFF79DFF207010BC01BC0047C0467A
:106294005000004010B50C4A002313800B4A1380B1
:1062A4000024FFF7EBFF084B1B88002B03D0074BA0
:1062B4001B88002B05D102200134FBF745FC322C4E
:1062C400EFD110BC01BC004792170040901700406A
:1062D400024B1A681860101C7047C046B41700407F
:1062E40001480023037170479C1700402820704721
:1062F40000B50A4A0B1C83B01188002807D001227C
:106304000092019206481A1CFFF70EFE02E00548AF
:10631400FFF70AFE03B001BC0047C0469A170040CD
:106324007C7800001C78000038B5064C051C00235E
:10633400291C2371201C042200F0B3FA257138BCF7
:1063440001BC00479C17004030B583B00120FBF727
:10635400DBFA28211B48FDF7E9FD011C002802D0C7
:106364001948FBF77EFE194C2368002B0ED020231E
:106374005868174900F05EFE68460A1C1549FBF789
:1063840050FE6846FFF7D0FF00232360FDF75EFC54
:1063940011491248FDF750FC0320FFF733F8FFF7CB
:1063A400DFFD0F48FFF7ACFD01210E48FFF7BCFDF0
:1063B40080220D4952000D48FFF7B6FD03B030BCF2
:1063C40001BC0047C8320000867900005400004038
:1063D400102700009A790000156600004964000047
:1063E400C9670000A477000001100000CC7700000A
:1063F40008B5FEF7F9FF08BC01BC004738B50D4CE1
:106404000D4B2568226813400C4A2360C82313608F
:10641400043A1360002809D03220FBF795FB084B9F
:1064240008221A603220FBF78FFB2560281C38BC39
:1064340002BC084700C002E03F0FFFFF0C8002E0EF
:10644400048002E070B5037888B0041C162B52D087
:10645400162B0FD8052B00D1B3E0052B03D8032B43
:1064640000D0B4E0A1E00E2B00D187E0142B00D0C3
:10647400ADE09FE0602B0DD0602B05D8172B5DD0CD
:10648400182B00D0A3E042E0702B21D0722B00D057
:106494009DE00BE08378022B00D098E04E4C4F49EE
:1064A400201C4F4AFBF7BDFD4E4865E0811C06A841
:1064B400FFF787FB627A237A12021A434A4B1A8047
:1064C400617B237B090249481943FFF72DFD7EE0D8
:1064D400C11C06A8FFF775FBA27A637A12021A435D
:1064E400414B1A80A378002B71D1FA210120C900F5
:1064F400FFF7FEFE6BE006AD811C281CFFF761FB75
:10650400291C0422364B3A48FFF70EFD5FE0811C3C
:1065140068460622013000F0C4F9211C684608319F
:106524001022073000F0BDF9237E6D46EB75012380
:106534005B4268462B7000F0A5F848E06D46861C67
:106544000135311C0622281C00F0ABF9684600F026
:10655400FDF806AC00280AD0201C291CFFF731FBEB
:106564006A46211C07322348FFF7DEFC2FE0201C7B
:10657400311CFFF726FB2048211CA6E70379C278CB
:106584001B021343174A12881C48934201D100216D
:106594009BE702881A48934201D11A4995E7028879
:1065A400934214D118480D218FE7184B01221A7019
:1065B40000200AE00279C37812021A430A4B1A80B7
:1065C40005E0124B00221A700120FCF71BF908B0F9
:1065D40070BC01BC0047C046A41700409F7900006E
:1065E4009C170040BC7700009A170040DC7700003D
:1065F40024780000C4770000E4770000FC770000F2
:1066040034780000040744002C78000098170040F8
:10661400F8B50B4C2368071C0E1C151C002B0CD062
:10662400881880225200521B002100F030F92368A0
:10663400381C311C2A1C00F005F8F8BC01BC0047CA
:10664400B41700401847C04608B5031C1822081C9C
:10665400191C00F05CFA08BC01BC004738B503788B
:10666400402293430D1C041C0370012000F06AFABD
:10667400281C211C1822012300F0BCFA38BC01BCE0
:1066840000470000F0B5C31D89B080240193051CA8
:10669400471C002364022BE002AE301C211CFFF7D0
:1066A400D3FF3378FF2B07D1281C211CFFF7D6FF1B
:1066B400301C211CFFF7C8FF02AE3278C023134000
:1066C400802B3FD168460930391C062200F0F6F8C9
:1066D400002837D1F27DEB7D9A422BD168460F30EA
:1066E4000199102200F0EAF8002823D1012318347C
:1066F400154A944202D8002BCED016E0002B14D1B8
:10670400012000F01FFA80200121400200F0D0FA9D
:10671400012000F017FA88200121400200F0C8FA95
:106724008021281C4902FFF799FF09B00020F0BC22
:1067340002BC084702A802787F2313400370211C7F
:10674400FFF78CFF0023D2E7FE1F0100F0B5802481
:1067540087B0061C471C64026D466846211CFFF77F
:1067640073FF2A78C0231340802B0ED16846013072
:10677400391C062200F0A2F8002806D1301C694614
:10678400182200F08EF8012004E0044B18349C42D7
:10679400E2D1002007B0F0BC02BC08471020010081
:1067A40008B520239B6D00F003F808BC01BC00472A
:1067B400184708B52023DB6D00F003F808BC02BCC1
:1067C400084718477047000010B5041CFBF7DEF9B2
:1067D400134A8023DB041360E0231B0603221A60A0
:1067E400FBF790F9FBF797F900F09CFAFBF760FCD4
:1067F4000120FFF7D5FFFBF749F8FFF79BFC002CBE
:1068040002D00120FFF7FAFD00F08AF9002C03D032
:10681400FFF79AFD00F0F8F810BC01BC0047C04631
:10682400040000E010B50C1C002801D0FBF7F8FCB4
:106834000020B321FBF721FD0120002C09D0F02119
:10684400FBF71BFD0020CA21FBF717FD0120602187
:1068540018E0F221FBF711FD0020CA21FBF70DFD22
:1068640001201E21FBF709FD0020B121FBF705FDE6
:106874000120FF21FBF701FD0020B621FBF7FDFC01
:1068840001200121FBF7F9FC10BC01BC004700B555
:1068940002E00170013A0130002AFADC002002BC57
:1068A400084710B5002303E0CC5C013AC45401331B
:1068B400002AF9DC002010BC02BC084730B5031CD8
:1068C4000024002003E01D5D085D0134281A002A1D
:1068D40002DD013A0028F6D030BC02BC08470000B3
:1068E40000B5002801D1102300E01123014A1360F0
:1068F40001BC0047084002E008B50A4B1B683C2174
:10690400C01800F097FB084B1960603B196802221D
:106914000A431A600223054A5B42136008BC01BCA7
:106924000047C046204002E0604002E0104002E020
:1069340042690F4B1A600269043B01321A60C26952
:10694400043B01321A608269043B1A60C268043B4A
:1069540001321A608268043B1A604268043B1A6080
:106964000268043B1A60034A28331A607047C04621
:106974003C4002E0CEFA0DF038B5194B041C3C2122
:10698400186800F057FB174B216018683C2100F091
:1069940051FB154B61601868182100F04BFB134B39
:1069A4001B681F25013B2B40E360114B1A6807232A
:1069B4001340A3610F4B1868A16001380E4900F021
:1069C40039FB0E4B1B68013B1D400D4B1A680D4BE8
:1069D40013402561E161636138BC01BC0047C046D6
:1069E400204002E0244002E0284002E02C4002E083
:1069F400304002E0344002E06F010000384002E021
:106A04003C4002E0FF0F000010B51E4B07221A6045
:106A140082B064230193019B5A1E0192002BFAD188
:106A2400194B12221A6064230193019C631E019383
:106A3400002CFAD10020FFF753FF144BFF221C60F7
:106A440004331A6038331A68114B9A4213D0FCF796
:106A540025FC104A104B1A600122043B1A600522DF
:106A6400083B1A60043B02221A60043B1C60043B8E
:106A74001C60043B1C600120FFF732FF02B010BC15
:106A840001BC0047404002E0084002E00C4002E044
:106A9400CEFA0DF0DA0700003C4002E000B5042213
:106AA400002801D0024B00E0024B1A6001BC0047F1
:106AB4000C8002E0048002E008B520231B6C00F087
:106AC40003F808BC02BC0847184708B5011C10208D
:106AD400FFF7F2FF08BC01BC004708B5011C082001
